:020000040000FA
:1000000010D5FF1F35020000490200004B0200001E
:100010004D0200004F0200005102000000000000ED
:10002000000000000000000000000000530200007B
:100030005502000000000000570200006119000096
:100040005B0200005B0200005B0200005B0200003C
:100050005B0200005B0200005B0200005B0200002C
:100060005B0200005B0200005B0200005B0200001C
:100070005B0200005B0200005B0200005B0200000C
:100080005B0200005B0200005B0200005B020000FC
:100090005B0200005B0200005B0200005B020000EC
:1000A0005B0200005B0200005B0200005B020000DC
:1000B0005B0200005B0200005B0200005B020000CC
:1000C0005B0200005B0200005B0200005B020000BC
:1000D0005B0200005B0200005B020000F103000015
:1000E000010400005B020000110400005B0200003C
:1000F0002104000031040000410400005B02000004
:100100005B0200005B0200005B0200005B0200007B
:100110005B0200005B0200005B0200005B0200006B
:100120005B0200005B0200005B020000C91A0000D5
:100130000D0B0000350B00006D0B0000990B00004B
:100140005B0200005B0200005B0200005B0200003B
:10015000D50B0000010C00003D0C0000690C0000F4
:10016000A50C0000D10C00005B0200005B02000047
:100170004D0300005B0200005B0200005B02000018
:100180005B0200005B0200005B0200005B020000FB
:100190005B0200005B0200005B0200005B020000EB
:1001A0005B0200005B0200005B0200005B020000DB
:1001B0005B0200005B0200005B0200005B020000CB
:1001C0005B0200005B0200005B0200005B020000BB
:1001D0005B0200005B0200005B0200005B020000AB
:1001E0005B0200005B0200005B0200005B0200009B
:1001F0005B0200005B0200005B0200005B0200008B
:100200005B0200005B0200005B0200005B0200007A
:100210005B0200005B0200005B0200005B0200006A
:10022000DFF80CD000F040F80048004759260000E5
:1002300010D5FF1FDFF82400016841F47001016050
:100240000748804707480047FEE7FEE7FEE7FEE76E
:10025000FEE7FEE7FEE7FEE7FEE7FEE788ED00E0EB
:10026000051A00002102000040EA01039B0703D0A9
:1002700009E008C9121F08C0042AFAD203E011F8E5
:10028000013B00F8013B521EF9D2704730B50446DD
:100290000020034600E05B1C934203D2E05CCD5C8F
:1002A000401BF8D030BD0000064C074D06E0E0686A
:1002B00040F0010394E8070098471034AC42F6D3AD
:1002C000FFF7B2FF80320000C032000070B58C181A
:1002D00010F8015B15F0070301D110F8013B2A115A
:1002E00006D110F8012B03E010F8016B01F8016B47
:1002F0005B1EF9D12B0705D40023521E0DD401F843
:10030000013BFAE710F8013BCB1A921C03E013F80B
:10031000015B01F8015B521EF9D5A142D8D3002040
:1003200070BD4CF2251CC1F6FF7C60474CF22F0CCF
:10033000C1F6FF7C60474CF2751CC1F6FF7C60473C
:100340004CF27F0CC1F6FF7C604700000149024877
:1003500000F004B800C2FF1F0070024070B50446F0
:10036000407A0D46800606D5607A20F02000607243
:10037000A86800B18047607E800606D5607E20F0C8
:1003800020006076E86800B180476078400608D5B4
:10039000607820F040006070696811B104F11C00C1
:1003A00088476078000608D5607820F0800060708B
:1003B000296811B104F10C0088476078800606D5E1
:1003C000607820F020006070286900B1804794F8C0
:1003D0004800C0070AD014F8480F20F00100207030
:1003E0006869002802D0BDE87040004770BD000079
:1003F0000149024800F02CB81CC2FF1F0050024007
:100400000149024800F024B82CC2FF1F40500240AE
:100410000149024800F01CB83CC2FF1FC050024016
:100420000149024800F014B84CC2FF1F405202407C
:100430000149024800F00CB85CC2FF1F8052024024
:100440000149024800F004B86CC2FF1FC0520240CC
:1004500070B5057C0E460446680706D5207C20F062
:1004600004002074B06800B18047A80706D5207C3E
:1004700020F002002074706800B18047E80709D0BE
:10048000207C20F0010020743068002802D0BDE8F4
:100490007040004770BD08B50A464FF6FF71ADF8D1
:1004A00000100146684600F025F8BDF8000008BDC0
:1004B00000B5FFF7F0FF08B1002000BD012000BD2E
:1004C000F8B506464FF6FF700C46ADF800004FF445
:1004D00000470AE03D46AC4200D2A5B22A4631466A
:1004E000684600F007F8641B2E44002CF2D1BDF8DA
:1004F0000000F8BDF0B50488094EE3B2240A06F501
:10050000807705E011F8015B5D40735D63407C5DC1
:10051000521E92B2F6D243EA04210180F0BD0000DF
:10052000F826000070B5114D686E114EC4B2600718
:1005300006D5A86E40F00400A866306800B1804778
:10054000A00706D5A86E40F00200A866706800B14A
:100550008047E00709D0A86E40F00100A866B068A7
:10056000002802D0BDE87040004770BD0000014087
:1005700080C3FF1F70B586B00D46064603AC01A9C7
:1005800002F07FF8214606F1080002F07AF81649D9
:1005900001A801F00DFF1449204601F009FFDDE933
:1005A0000210CDE90201104901A8803101F000FFDD
:1005B0000D492046803101F0FBFEDDE90210CDE956
:1005C00002010A4901A801F0F3FE0849204601F0A2
:1005D000EFFE294601A802F071F805F10801204656
:1005E00002F06CF806B070BD8CC3FF1F8CC4FF1FF7
:1005F00010B5012400F004F800B90024204610BD15
:1006000010B572B60649884202D3FFF78AFE01E0B0
:10061000FFF78CFE62B608B1002010BD012010BDAE
:1006200000000C200C4A002152F8213083420AD0ED
:10063000491C89B21129F7D3074A0021443252F8E4
:100640002130834201D101207047491C89B204291D
:10065000F5D3002070470000F8310000AFF30080B0
:1006600013B572B608494FF00202884201A902D3BD
:10067000FFF761FE01E0FFF763FE62B608B10020FC
:100680001CBD01201CBD000000000C20044B034ACF
:100690001A60044AD060D1607047000051E5CC1A5E
:1006A000001C01400010014018B1012806D00420B0
:1006B00070470348017A21F08001017200207047E1
:1006C0000050034018B101280AD0042070470648A2
:1006D0000449C160017821F0800101700021C160EE
:1006E0000020704753E5CC1A0050034018B1012890
:1006F0000AD00420704706480449C160017841F0DF
:10070000800101700021C1600020704753E5CC1AC0
:100710000050034001004FF0000004D10249097964
:10072000090600D5012070470050034038B5044643
:100730000121684601F09EFF0420002C12D0217890
:10074000002019290FD29DF8002061F386028DF850
:100750000020064900220A72054BCB609DF800304C
:100760000B70CA6038BD042038BD00000050034043
:1007700053E5CC1A10B572B600200449086000F0A9
:1007800059F800F089F862B610BD000008ED00E0ED
:1007900072B60020411E820002F1E022C2F88011F0
:1007A000401C80B20828F6D34FF0E02100200861F9
:1007B000704770B504464FF47A7504E000F0A2F972
:1007C000284600F004F8641EA4B2F7D270BD27E0FA
:1007D00000BF00BF00BF00BF00BF00BF00BF00BF21
:1007E00000BF00BF00BF00BF00BF00BF00BF00BF11
:1007F00000BF00BF00BF00BF00BF00BF00BF00BF01
:1008000000BF00BF00BF00BF00BF00BF00BF00BFF0
:1008100000BF00BF00BF00BF00BF00BF00BF00BFE0
:10082000401E80B2D4D2704701488089C0B2704760
:10083000008003403EB500240C21684601F01AFFF9
:1008400018208DF800006846FFF770FF0020FFF7C2
:100850004DFF0A20FFF7ADFF0020FFF75BFF0128E7
:1008600012D10020FFF720FF0020FFF72BFF0A2006
:10087000FFF79FFF0020FFF739FF0A20FFF799FFDE
:10088000641CA4B2642CE7D30020FFF71BFF642094
:10089000FFF78FFF3EBD000010B501F069F80B486F
:1008A0004FF47A710068B0FBF1F0401EB0F1807F28
:1008B0000AD24FF0E0214861054AF02082F8140D79
:1008C000002088610720086110BD0000F4C1FF1FEF
:1008D0000FE000E0024951F83000032100F07EBA39
:1008E0004C320000024951F83000052100F076BA80
:1008F0004C320000024951F83000012100F084BA66
:100900004C320000024951F83000012100F08CBA4D
:100910004C32000070B5074D0446022155F83400F2
:1009200000F082FA55F83400BDE87040002100F074
:100930006BBA00004C320000024951F8300002212D
:1009400000F072BA4C32000070B5184D0446032115
:1009500055F8340000F0B2FA10B1204601F0EEFB79
:1009600055F83400022100F0A9FA60B955F83400B6
:10097000012100F0A3FA30B955F83400002100F04D
:100980009DFA002810D055F83400022100F026FA14
:1009900055F83400012100F021FA55F83400BDE883
:1009A0007040002100F01ABA70BD00004C32000007
:1009B00010B504460648052150F8340000F07EFAD0
:1009C000002804D02046BDE8104001F05DBC10BDF9
:1009D0004C320000034910B551F8300000F017FC0C
:1009E000C0B210BD4C320000F0B5074636488DB09D
:1009F0000E4650F8375014462021684601F03AFE62
:100A0000102108A801F036FE052F0CD2DFE807F010
:100A10000307282C30002D480A902D4802E02D486D
:100A20000A902D48099000238DF80C308DF80D3078
:100A30008DF800308DF80B3004938DF80E3008A837
:100A4000CDE9053001208DF81C000196A4B1012CE0
:100A500019D0022C8DF80A301BD08DF809000FE058
:100A60001E480A901E48DDE71E480A901E48D9E736
:100A70001E480A901E48D5E78DF80A308DF80930D7
:100A80008DF808300AE08DF80A308DF8093003201F
:100A900002E08DF8093002208DF8080069462846EA
:100AA00000F032FA0121284600F0DBF90021284647
:100AB00000F0D7F90121284600F0E3F90221284689
:100AC00000F0B2F90DB0F0BD4C32000093220000EE
:100AD0008D2200009F22000099220000AB2200001E
:100AE000A5220000B7220000B1220000C3220000AE
:100AF000BD220000024A52F8300000F08ABB00001C
:100B00004C320000AA215520FFF7C0BD0648D0F89E
:100B1000F402C00707D005490879012803D1044829
:100B2000091D00F035B970470010034078C2FF1F5F
:100B30000080034070B50A48D0F8F842094DE0073C
:100B400006D02879012803D1291D074800F029F98A
:100B5000A00703D52879012800D1FEE770BD000069
:100B60000010034078C2FF1F008003400748D0F800
:100B7000FC02C00709D0064890F82400012804D1DF
:100B800003490448243100F003B9704700100340C2
:100B900078C2FF1F0081034070B50B48D0F80043B6
:100BA0000A4DE00708D095F82400012804D105F18A
:100BB0002401074800F0F5F8A00704D595F82400B3
:100BC000012800D1FEE770BD0010034078C2FF1F6E
:100BD000008103400748D0F81403C00709D0064835
:100BE00090F84400012804D103490448443100F03E
:100BF000CFB870470010034078C2FF1F0084034045
:100C000070B50B48D0F818430A4DE00708D095F8A6
:100C10004400012804D105F14401074800F0C1F85F
:100C2000A00704D595F84400012800D1FEE770BD67
:100C30000010034078C2FF1F008403400748D0F82B
:100C40001C03C00709D0064890F86400012804D1AD
:100C500003490448643100F09BB87047001003401A
:100C600078C2FF1F0085034070B50B48D0F82043C1
:100C70000A4DE00708D095F86400012804D105F179
:100C80006401074800F08DF8A00704D595F86400CA
:100C9000012800D1FEE770BD0010034078C2FF1F9D
:100CA000008503400748D0F82403C00709D0064850
:100CB00090F88400012804D103490448843100F0ED
:100CC00067B870470010034078C2FF1F00860340DA
:100CD00070B50B48D0F828430A4DE00708D095F8C6
:100CE0008400012804D105F18401074800F059F877
:100CF000A00704D595F88400012800D1FEE770BD57
:100D00000010034078C2FF1F008603407FB511A288
:100D10003CCA8DE83C006A4691B13D2101EB40019F
:100D20004CB2082805D202EB40004178204600F082
:100D3000AFFA204600F096FA204600F09EFA7FBDFA
:100D40003C2101EB40014CB20828F8D212F81010F7
:100D5000ECE700000F0F0F0F0F0F0F0F0F0F0F0F0C
:100D60000F0F0F0F10B5002468B1084A002102EBE5
:100D700041131B68834203D102EB4114241D02E09E
:100D8000491C0529F3D3204610BD000078C2FF1F7F
:100D9000002805D0002903D08868002800D000472B
:100DA000704770B50D46040017D0002D15D060793E
:100DB000800702D5686800B180476079C00702D01B
:100DC000E86800B18047A08A400506D5286900B1CF
:100DD0008047A08A20F48060A08270BD90B107296E
:100DE00010D2DFE801F00404040D0D0D0900417973
:100DF00041F08001417103E0818A21F480618182A8
:100E0000002070470420704710B119B1012905D0A6
:100E100004207047417821F0010102E0417821F07F
:100E2000020141700020704730B139B1012909D069
:100E300002290CD003290ED004207047417821F0FC
:100E4000080102E0417821F01001417007E041788B
:100E500021F00401F9E7818A21F4007181820020E8
:100E6000704710B119B1012905D0042070474178AD
:100E700041F0010102E0417841F00201417000209F
:100E8000704730B139B1012909D002290CD00329AA
:100E90000ED004207047417841F0080102E041780B
:100EA00041F01001417007E0417841F00401F9E799
:100EB000818A41F40071818200207047024600203F
:100EC000072908D2DFE801F004080C1014181C00F0
:100ED0005079C0F3401070475079C0F3001070474C
:100EE0005079C0F3C00070475079C0F3800070475C
:100EF0005079C0F3400070475079C0F3000070474C
:100F0000908AC0F380207047FEB50D46044601214B
:100F100001A801F0AFFB012102A801F0ABFB012108
:100F2000684601F0A7FB2046FFF71CFF060077D0BC
:100F3000002DFCD04FF400402044C0F307270F2FB2
:100F40006ED801203070287810B1012868D104E0F3
:100F50009DF8040020F0E00004E09DF8040020F07B
:100F6000E00020308DF804009DF8040040F00100FE
:100F70008DF80400287A20B102280DD00328E5D18D
:100F80001AE09DF8000020F008008DF800009DF8A0
:100F9000000020F0100004E09DF8000020F00800A0
:100FA0000EE08DF80000687A88B1012814D002287C
:100FB00026D0032834D128E09DF8000040F0080036
:100FC0008DF800009DF8000040F01000E9E79DF862
:100FD000040020F0080003E09DF8040040F0080041
:100FE0008DF804009DF8000020F040008DF800000E
:100FF000A87A052814D2DFE800F02C141A26310054
:101000009DF8040020F0080003E09DF8040040F083
:1010100008008DF804009DF8000040F04000E5E76E
:101020008EE09DF8000020F00700401C04E09DF8D1
:10103000000020F00700801C8DF80000E87A98B1CD
:1010400001287DD115E09DF8000020F00700C01CAC
:10105000F2E79DF8000020F00700EDE79DF80000A2
:1010600020F00700001DE7E79DF8040020F00400D1
:1010700003E09DF8040040F004008DF80400687B54
:1010800001289DF8000068D020F080008DF8000055
:10109000287B01289DF8000062D020F020008DF808
:1010A0000000607840F0800060702046696800F0C1
:1010B000B7F89DF8040020709DF80800617860F38F
:1010C000000161709DF808004108607861F34100FB
:1010D00060709DF808008108607861F3820060709C
:1010E0009DF80800C108607861F3C30060709DF846
:1010F00008000109607861F3041060709DF8080031
:101100004109607861F3461060709DF80800C109DC
:10111000607861F3C71060709DF800002071A87BB3
:101120000128A0891FD020F40040A081286998B32D
:10113000A08A40F00400A082A08A40F0080000E0ED
:1011400009E0A082A08A40F40060A08228690078AB
:1011500060B101280ED00420FEBD40F0800095E76C
:1011600040F020009BE740F40040DEE7A08A20F436
:10117000807002E0A08A40F48070A08228694078E4
:101180002076286980786076A08A40F00100A082ED
:10119000A08A40F00200A0826869F0B1407801287E
:1011A00003D1607840F01000607068690078012811
:1011B00003D1607840F00800607068698078012889
:1011C00003D1607840F0040060706869C07801283D
:1011D00003D1A08A40F40070A082A86950B1406891
:1011E000B060A86900687060A8698068F060A8694C
:1011F000C0683061287F012807D100213846FFF7F9
:1012000085FD01213846FFF781FD0020FEBD0089E4
:10121000704710B101810020704704207047000022
:1012200070B50D46044600F0A3FB0CB1042D01D2AD
:10123000042070BD0948C06900F003010120884006
:1012400007490968B1FBF0F0B0FBF5F0A189401E39
:1012500060F30E01A181002070BD0000000001407C
:10126000F4C1FF1F00F01F020121914040098000DE
:1012700000F1E020C0F88012704700F01F02012149
:1012800091404009800000F1E020C0F80011704753
:101290000907090E002806DA00F00F0000F1E0202F
:1012A00080F8141D704700F1E02080F800147047AA
:1012B0002DE9F0470446008828B1012805D0A0791F
:1012C000AA2802D103E000218BE0022189E0E07925
:1012D0004027574D4FF48049052862D00FDC012884
:1012E00024D0544E4FF46058022824D003283DD017
:1012F0000428EAD12046BDE8F04700F09DB88028D8
:101300006ED0D02872D0E0287ED0FE28DDD1012119
:10131000204600F07FF9204600F05AFF4FF47A7023
:1013200000F046FABDE8F04700F0B8BA2046BDE844
:10133000F04700F04BB90621A01DFFF7ACF8217B68
:10134000C2B29142C1D1617BB1EB102FBDD1E17A24
:10135000A06861F31F60484502D1C6F8009003E021
:101360004045B2D1C6F8008001213AE00621A01D17
:10137000FFF791F8217BC2B29142A6D1617BB1EB1C
:10138000102FA2D1E17AA06861F31F603168414556
:1013900002D1B0F5006F98D83F30EF8180093081DD
:1013A000E2E7207AB4F8091082288ED101298CD185
:1013B0008521A01DFFF76FF894F88B10C2B29142FF
:1013C00083D194F88C10B1EB102F92D10120A88119
:1013D0001848802204F10B015030FEF745FFC3E7A7
:1013E0000A212046BDE8F04700F014B90621A01DEF
:1013F000FFF75EF828B12089E8814038B0F5707FAA
:10140000B2D9EF8161E7FFE70621A01DFFF750F891
:101410000028F7D02089698B8142A5D0052120467C
:1014200000F0F8F84846BDE8F047FFF7E1B80000E3
:1014300054C3FF1F20E503202DE9F84F5F4D002422
:1014400007460094E889A246801D81B2B81DFFF7C7
:101450002FF838B13E89A14656B1288A86420AD172
:10146000042100E002213846BDE8F84F00F0D2B870
:10147000A5F8109002E0401C8642F3D12E82DFF8DE
:1014800040818CE006FB00408B46C11700EB916069
:10149000C0F38F10A8F80C0088F84E90D8F8001010
:1014A000B1F5804F11D1022803D2BBF80C100029EE
:1014B000D8D050B9C8F80490A8F80A90012088F84C
:1014C0004E004FF6FF71ABF81A103C483919402214
:1014D0001A300A31FFF70EF8B8F80C00B8F8081007
:1014E00088425AD20025601908EB050138440A30B9
:1014F0000E31FFF73FF81035ADB2402DF3D3BAF1FE
:10150000000F16D14FF0010A0321384600F082F88F
:10151000384600F05DFE9BF8040028B100208BF8EF
:10152000040018B1484602E00120F8E701202549EF
:101530000872234800F04CF9002893D0D8F8001026
:101540004046B1F5804F28D101898289491E8A42DF
:1015500023D1A0F80C90C0F804900221DFF860B00D
:10156000A0F80A9080F84E1000250BF1500B08EB04
:1015700005010BEB05000E31FEF7FCFF1035ADB297
:10158000402DF4D30E4800F023F9002890D000F04D
:101590009BF970B10C4981F800904034A4B207491E
:1015A000C8898442FFF46EAF009800283FF458AF1A
:1015B00058E705490120087054E7000054C3FF1F95
:1015C00020E503200080DE424CC3FF1F10B5044617
:1015D0000421801DFEF75FFFA17AC2B2914203D1C0
:1015E000E17AB1EB102F01D0022108E0218959B135
:1015F00001290BD002290BD00329F5D10621204661
:10160000BDE8104000F006B80721F8E70821F6E72A
:101610000921F4E72DE9F047044604F21F460022B1
:10162000022355200127751F4FF009094FF0030CC5
:101630000B2908D2DFE801F006090D111519203B2E
:101640004D7F9E00A280BDE8F08784F81A04F02048
:101650000EE084F81A04FF200AE084F81A04F3204C
:1016600006E084F81A04FC2002E084F81A04F4204E
:1016700084F81B04A380E6E784F81A0484F81B743A
:10168000042084F81C0484F81DC484F81E2484F803
:101690001F2484F8200407212846FEF7FCFE84F866
:1016A0002104000A84F82204A4F80490CBE784F80B
:1016B0001A0484F81B7484F81C9484F81D2484F89C
:1016C0001E24072238A13046FEF7CEFD0C21A18052
:1016D00016E084F81A044FF4804184F81B740878EB
:1016E000492808D148784E2805D18878492802D160
:1016F000C878542811D084F81C24A4F804C0A18808
:101700002846FEF7C8FEA1884A1CA2804855020A56
:10171000A088411CA180425595E7822084F81C04D2
:1017200084F81D7484F81E2480223046FEF79CFD48
:101730008520A080E3E784F81A0484F81B7406204F
:1017400084F81C0484F81D3484F81E2484F81F24B3
:10175000402084F8200484F8212484F822240921DC
:101760002846FEF798FE84F82304000A84F824042F
:101770000B2017E084F81A04802084F81B045620FC
:1017800084F81C04312084F81D04302084F81E04E1
:1017900005212846FEF77FFE84F81F04000A84F81E
:1017A00020040720A0804EE7484C303535435F00C9
:1017B00070B504464FF47A7504E0FFF7A3F92846A4
:1017C000FFF705F8641EA4B2F7D270BDFEF7FFBFA5
:1017D0002DE9FF4104468089218988423CD204F1E9
:1017E0000E00082222A10546FEF750FD70B9102216
:1017F00029466846FEF738FDDDE90201C943884203
:1018000004D12168401A6060A0896081D4E9000198
:101810000844A1896289891A00EB81163046FEF7D7
:1018200001FF40B194F84E00022808D03046FEF780
:10183000DFFE002811D094F84E0001280DD00025BD
:101840006019D0F80E7030463946FEF707FF0028C1
:1018500003D03068B84203D0002004B0BDE8F08166
:101860002D1DADB2361D402DEAD30120F5E7000055
:1018700053454354414444520000000070B54FF4B6
:101880008045D5F80042601C07D0FEF781FF84F345
:101890000888D5F804028047012070BDFFF732F9AF
:1018A000012080F31388BFF34F8F05480168054A74
:1018B00001F4E06111430160BFF34F8F00BFFDE70A
:1018C0000CED00E00400FA0570B54FF48042224CA4
:1018D00012F8700F5178D37840EA01219078000413
:1018E00040EA03600143216110795379D57940EAD8
:1018F000032093791B0443EA056318436061137A5C
:10190000557AD67A43EA0523957A2D0445EA066589
:101910002B43A361157B567B45EA06252581967BE3
:10192000D27B46EA022241EA00061E432E43628130
:1019300016430ED0D24392B2AA4208D11A1A8A4252
:1019400005D1FEF7BDFDA0812189814201D0002093
:1019500070BD012070BD000018C3FF1FFFF7D2B893
:1019600002480168491C016000F04ABA50C3FF1FD9
:101970001F490868C0F3421006281AD2DFE800F0B9
:101980000305071914161B4814E01B4812E0C86B26
:10199000194A00F03F00401C50438A6BC2F3031207
:1019A000521CB0FBF2F005E0144803E04FF4004095
:1019B00000E00020096901F007021149072A14D24A
:1019C000DFE802F0110406080A0E100040080AE0E1
:1019D000032202E0800806E00622B0FBF2F002E0FB
:1019E000C00800E00009086070470020FBE7000025
:1019F0000000014000093D0000127A00A0860100AD
:101A0000F4C1FF1F30B5294827490160C94301606F
:101A10002748002484602748016841F47001016070
:101A20000122C3065A6158698007FCD522490C611E
:101A30004A61802088618120C861832008628C62AD
:101A40005C200863086840F002000860486880076E
:101A5000FCD54C6304208863C863086840F010001C
:101A600008604868C006FCD5086840F0400008607F
:101A7000124D086800F0E00068604A6802F0E00279
:101A80008242F6D1D3F800110D4888430BD00649A5
:101A90000C48C91CC160D3F80011090C8160D3F84F
:101AA00000114160C46030BD51E5CC1A001C0140FA
:101AB0000010014088ED00E000000140F4C1FF1F6C
:101AC000FF031F0000E002400348D0F8F002400787
:101AD00001D0FEF727BD70470010034030B51C4A07
:101AE00000200123546A1B493C2C25D31A4C94F83E
:101AF0001C450CBB1478012C1ED0947974B99371D9
:101B000081F80C0381F80C03144D85F80C33144C48
:101B100084F80C03087008702B702070947A5CB9FC
:101B2000D48A0A2C08D8158B35B9042555724FF480
:101B300016751583641CD4829479002C03D0527AD4
:101B400012B181F80C0330BD81F80C3330BD0000B8
:101B500054C3FF1F0080DE4200E003200040DE424D
:101B60000000DE424FF4804100200A78492A09D162
:101B70004A784E2A06D18A78492A03D1C97854294D
:101B800000D101207047000070B5FFF7EBFF0400A3
:101B90004FF001050BD0FFF797FE40B9FFF794FE19
:101BA00028B9FFF791FE10B90F48002405700F49BE
:101BB000002081F838000E4981F838000D4981F87D
:101BC00038000D4908700D4890F8380050B1C879B8
:101BD000012801D0002C06D102200870BDE8704019
:101BE00000F06EB90D7070BD4CC3FF1F0020DE42C7
:101BF0000040DE420000DE4254C3FF1F0060DE42B0
:101C00002DE9F04717494FF00008174881F80B807D
:101C1000DFF858900768444601F11E0AFEB28F6251
:101C20001AF80450284600F0D5F900223946284613
:101C3000FEF7DAFE40F2174000FB0490641CE4B2A9
:101C40008670042CECD3012109A000F097FB074813
:101C50004FF48041D038C0E90018A0F80A80BDE8F0
:101C6000F087000054C3FF1F74320000F0E503202A
:101C70006162636465666768696A6B6C6D6E6F70DC
:101C80000000000030B51D4B04460220998B002255
:101C9000642903D39A83998A491C998284B1FF2CC1
:101CA00010D09978012581B1012911D0022915D0D0
:101CB000032906D1998A0F2903D39D70DA701AE09F
:101CC0009A7030BD9A70012030BD9A82DA709D7092
:101CD000998A01200529F7D3022109E0998A05296B
:101CE000F2D3D978491CC9B2D970A14202D30321D9
:101CF000997000E09D709A8230BD000054C3FF1FB0
:101D000006484178002908D10121054A4170002088
:101D10001072044A117204490872704754C3FF1FBD
:101D20000080DE420040DE420000DE4270B5FFF778
:101D30002BFF224C207800283FD0FFF761FF204E78
:101D4000204DFFF70BFEFFF7DBFFFFF70BFF20B186
:101D50001D48007818B1042002E0032000E0FF20B5
:101D600096F81C1571B9FFF78DFF6179814209D092
:101D70006071012802D0022802D003E0002000E0B8
:101D8000012028720E4800F097F90D48FFF790FAED
:101D90000B4800F01DFA00F0B1F82078012807D1B7
:101DA0000A4890F8380018B10220207000F088F836
:101DB00000F00EF8FFF792FEC3E770BD54C3FF1F9B
:101DC00000E003200080DE424CC3FF1F0060DE42C3
:101DD0000A49087A00280FD000200872486A421C7D
:101DE00001D0401C4862487A08B1401E4872088BF6
:101DF000002801D0401E08837047000054C3FF1F15
:101E0000144991F81A05FF2802D0401C81F81A05E0
:101E1000114B002040F2174100FB01F2995C09B11F
:101E2000491E9954401CC0B20428F3D30B49888B37
:101E3000A0F57F42FF3A01D0401C8883488A401CAD
:101E400080B24882B0F57A7F03D300204882012017
:101E50000872704700E00320F0E5032054C3FF1F21
:101E600030B50021104C114D114B012260B10128F9
:101E700009D002280FD0032805D184F8001385F873
:101E8000002383F8001330BD84F8801285F8802287
:101E900083F8801230BD074B0846197006490A7056
:101EA0000649087030BD00000080DE420040DE427E
:101EB0000000DE420084DE420044DE420004DE42D6
:101EC00070B5074E0024355D2846FFF7C9FF284648
:101ED00000F052F9641CE4B2042CF4D370BD00008D
:101EE00072C3FF1F0021884201D101207047491CA5
:101EF000C9B20529F7D30020704700002DE9F05F33
:101F0000DFF8C4A09AF81C05002842D100252F4F05
:101F10000AF5BE6B4FF00109A84640F2174005FBD9
:101F200000B47E5D6178B1B32078A0BB012E05D1ED
:101F3000032903D3254A1E3A82F80A90E078AA289A
:101F40002AD1E01CFEF7B4FA30B30025B84618F8E1
:101F50000570B742384605D1FEF7D4FC3846FEF787
:101F6000EBFC04E0FEF7D6FC3846FEF7C3FC6D1C24
:101F7000EDB2042DEBD38AF81C958AF81D955546D1
:101F80008AF81B656278E11CA81DFEF76DF9607880
:101F90002880BDE8F09F12E0A078401CC0B2A0707D
:101FA000032802D3404684F802800949C0B20022C7
:101FB00051F820103046FEF717FD84F801806D1CA3
:101FC000EDB2042DA9D3E4E700E0032072C3FF1FA4
:101FD00074320000F0B4364C00250121334E354AEE
:101FE000231D05285CD2DFE800F00317293A4B00D7
:101FF00006F8405F236823F0C00343F040032360EA
:1020000082F808113571236823F0300343F0100380
:10201000236082F8041143E086F84C50236823F4CF
:10202000405343F48053236002F8241F236823F4B1
:10203000406343F480632360117131E01C6824F035
:10204000C00444F040041C6082F88C121C6824F028
:10205000300444F010041C6082F8901220E01C68E8
:1020600024F4405444F480541C6082F804131C6827
:1020700024F4406444F480641C6082F808130FE088
:102080001C6824F4402444F480241C6082F89812D4
:102090001C6824F4403444F480341C6082F89412A8
:1020A000F0BC00224FF41651FEF79EBC00A0DE42A9
:1020B0001CF606400000DE4270B5044690F81C0590
:1020C000002805D094F81D05002510B184F81D5591
:1020D00070BD84F81A55174E258094F81B0503210E
:1020E00056F83000FEF7EAFE58B194F81B05FEF7EB
:1020F00071FC01462088A31D421C2280C15484F833
:102100001A55A079AA2809D1E079042806D1208897
:10211000462803D30848C0894028D9D0FFF71EFCC1
:1021200094F81A050428D3D8208840F21441884234
:10213000D3D370BD4C32000054C3FF1F70B50646A8
:10214000FEF748FC05463046FFF7CCFE00280FD0CE
:1021500040F2174016FB00F0064944183046FEF7DF
:10216000B9FB142020706178E21C481C60708D540B
:1021700070BD0000F0E50320084A002140B10128AD
:1021800005D0022807D0032801D182F80013704738
:1021900082F8801270470248017070470080DE426A
:1021A0000084DE42084A012140B1012805D00228FE
:1021B00007D0032801D182F80013704782F88012FB
:1021C00070470248017070470080DE420084DE42A2
:1021D0002DE9F041044690F81C0500284ED0284E09
:1021E0003078022808D1A08830B194F81B05FFF799
:1021F000D9FF1920FFF7EAFA4FF00008A4F802808F
:10220000204D28E004F21A42411C6180875C94F85A
:102210001B05002155F83000FEF723FE94F81B053E
:102220003946FEF767FC94F81B05052155F8300088
:10223000FEF744FE0028F6D06088A188884208D1C5
:1022400094F81B05052155F83000FEF737FE0028ED
:10225000F6D0FFF783FB6088A1888842D2D394F838
:102260001B05FEF757FBA4F804803078022805D13F
:1022700094F81B05BDE8F041FFF77EBFBDE8F08193
:1022800054C3FF1F4C320000FEF72CBB0020FEF7AA
:102290005BBB0020FEF78CBB0120FEF755BB012085
:1022A000FEF786BB0220FEF74FBB0220FEF780BB85
:1022B0000320FEF749BB0320FEF77ABB0420FEF79C
:1022C00043BB0420FEF774BB02E008C8121F08C11C
:1022D000002AFAD170477047002001E001C1121FA7
:1022E000002AFBD1704770B5A0B0694600234FF4B7
:1022F0007C5502465B1C146804F47C04A4010C6049
:10230000168806F47C6644EA86240C6050F8046F54
:1023100005EA962634430C600688C6F385163443D6
:1023200010C1146804F47C34240310C1127802F044
:102330003F0244EA024441F8044C026805EA1212E2
:10234000144341F8044C10F8042B02F03F021443EC
:1023500041F8044C102BCCDB684600F0C1F920B0EA
:1023600070BD0000044901F1800201E008C908C005
:102370009142FBD3704700008CC3FF1F70B50C0067
:10238000054611D0002105F1080000F0EBF80748E0
:10239000FFF7E8FF2146284600F0E4F8BDE870406A
:1023A00002488030FFF7DEBF0121ECE70CC4FF1FBD
:1023B0002DE9F04FD0E9002383EA121404F00F3422
:1023C000634082EA041283EA1244A4B2634082EAC0
:1023D000044282EA930404F03334624083EA8403C3
:1023E00082EA132404F0FF1483EA042362404FEAD4
:1023F000F37382EA0304DFF85CE104F0AA34AEF57B
:10240000806A624063400AF5A0664FEAF2720025D6
:102410000AF5E06BA6F5007910C94F4F84EA331432
:1024200004F03F0CC4F3052857F82CC05EF8287060
:10243000C4F3054847EA0C07DFF820C1C4F305647C
:102440006D1C5CF828C04CEA070C5AF8247010C9BF
:1024500047EA0C075C4004F03F085BF828C0C4F36F
:1024600005484CEA070CC4F30527C4F3056456F885
:10247000277047EA0C0759F828C04CEA070C384F78
:1024800057F82440344F44EA0C04624051F8084B9A
:1024900084EA321404F03F0CC4F3052857F82CC02A
:1024A0005EF82870C4F3054847EA0C07DFF8ACC0B3
:1024B000C4F305645CF828C04CEA070C5AF8247091
:1024C00051F8044C47EA0C07544004F03F085BF80D
:1024D00028C0C4F305484CEA070CC4F30527C4F32D
:1024E000056456F8277047EA0C0759F828C04CEAEB
:1024F000070C1B4F57F8244044EA0C046340082D96
:102500008ADB4FEA730182EA010303F0AA335A40DF
:1025100059404FEA720381EA132202F0FF12514040
:1025200083EA022381EA930202F03332514083EAC4
:10253000820282EA11439BB25A4081EA034382EA53
:10254000131101F00F314A4083EA0111C0E9001272
:10255000BDE8F08FF82D0000F82F0000F82B0000E8
:10256000F82A00002DE9F04F3A4DBDB08946002110
:10257000A5F1700620AC6A5C02F0070300EBE202F2
:1025800036F8133012781A4000D001226254491CE8
:102590003829F0DBDFF8BCE000220EF1380E0EF136
:1025A0001008A2460DF1B80C6F46A8F1A80BB9F1BE
:1025B000010F0ED051004B1C002047F8230047F8B4
:1025C00021001EF8025056462C181C2C05DA345DEA
:1025D00006E0C2F10F004100EDE7344414F81C4C52
:1025E0000CF80040401C1C28EEDB1C202C18382C5A
:1025F00001DA345D02E0344414F81C4C0CF800405D
:10260000401C3828F2DB00205C4618F800501CF80B
:10261000055035B157F8215054F82060354347F83C
:10262000215008EB00052D7E1CF8055035B157F8F8
:10263000235054F82060354347F82350401C182895
:10264000E3DB521C102AB2DB3846FFF74CFE3DB0EC
:10265000BDE8F08F80290000FEF7E6F80449087015
:10266000FEF788F8FFF762FBFFF708F9FEE70000C6
:102670005BC3FF1F002201E000F8012B491EFBD2C3
:102680007047027812060A60437842EA03420A6001
:10269000837842EA03220A60C3781A430A60027907
:1026A00012064A60437942EA03424A60837942EA69
:1026B00003224A60C07902434A6070470268130EE1
:1026C0000B70130C4B70130A8B70CA704068020EAB
:1026D0000A71020C4A71020A8A71C87170470000BF
:1026E000044901F1800201E008C808C19142FBD30E
:1026F000704700008CC3FF1F00C1814001C08041B2
:1027000001C0804100C1814001C0804100C18140C1
:1027100000C1814001C0804101C0804100C18140B1
:1027200000C1814001C0804100C1814001C08041A1
:1027300001C0804100C1814001C0804100C1814091
:1027400000C1814001C0804100C1814001C0804181
:1027500001C0804100C1814000C1814001C0804171
:1027600001C0804100C1814001C0804100C1814061
:1027700000C1814001C0804101C0804100C1814051
:1027800000C1814001C0804100C1814001C0804141
:1027900001C0804100C1814000C1814001C0804131
:1027A00001C0804100C1814001C0804100C1814021
:1027B00000C1814001C0804100C1814001C0804111
:1027C00001C0804100C1814001C0804100C1814001
:1027D00000C1814001C0804101C0804100C18140F1
:1027E00000C1814001C0804100C1814001C08041E1
:1027F00001C0804100C1814000C0C101C30302C2C9
:10280000C60607C705C5C404CC0C0DCD0FCFCE0E30
:102810000ACACB0BC90908C8D81819D91BDBDA1AA0
:102820001EDEDF1FDD1D1CDC14D4D515D71716D610
:10283000D21213D311D1D010F03031F133F3F23280
:1028400036F6F737F53534F43CFCFD3DFF3F3EFEF0
:10285000FA3A3BFB39F9F83828E8E929EB2B2AEA60
:10286000EE2E2FEF2DEDEC2CE42425E527E7E626D0
:1028700022E2E323E12120E0A06061A163A3A26240
:1028800066A6A767A56564A46CACAD6DAF6F6EAEB0
:10289000AA6A6BAB69A9A86878B8B979BB7B7ABA20
:1028A000BE7E7FBF7DBDBC7CB47475B577B7B67690
:1028B00072B2B373B17170B0509091519353529200
:1028C00096565797559594549C5C5D9D5F9F9E5E70
:1028D0005A9A9B5B99595898884849894B8B8A4AE0
:1028E0004E8E8F4F8D4D4C8C448485458747468650
:1028F00082424383418180400123456789ABCDEF0C
:10290000FEDCBA987654321089ABCDEF01234567CF
:1029100080004000200010000800040002000100B8
:1029200000008000000040000000200000001000B7
:102930000000080000000400000002000000010088
:102940000080000000400000002000000010000097
:102950000008000000040000000200000001000068
:102960008000000040000000200000001000000077
:102970000800000004000000020000000100000048
:10298000383028201810080039312921191109017F
:102990003A322A221A120A023B332B233E362E26C3
:1029A0001E160E063D352D251D150D053C342C2417
:1029B0001C140C041B130B0301020406080A0C0E62
:1029C0000F11131517191B1C0D100A170004021BF9
:1029D0000E05140916120B0319070F061A130C0122
:1029E00028331E242E361D27322C202F2B3026373D
:1029F00021342D2931231C1F000401010000000097
:102A000000000100040401010400010104040100AC
:102A100004000000000001000004000000040101A7
:102A20000404010100040000040400010400010189
:102A30000000000104000000040400000004000184
:102A40000004000100040100000401000000010175
:102A50000000010104040001040001000400000161
:102A60000400000104000100000000000404000054
:102A70000404010000000001000001000404010141
:102A80000400000000000101000401010000000139
:102A9000000000010004000004000101000001002A
:102AA0000004010004000001000400000400000014
:102AB00004040001040401000404010104000100F5
:102AC00000000101040400010400000104040000EE
:102AD00004040100000401010404000000040001DA
:102AE00000040001000000000400010000040100D7
:102AF00000000000040001012080108000800080A0
:102B00000080000020801000000010002000000065
:102B10002000108020800080200000802080108015
:102B20000080108000000080008000800000100005
:102B30002000000020001080008010002000100005
:102B40002080008000000000000000800080000065
:102B50002080100000001080200010002000008065
:102B60000000000000801000208000000080108025
:102B70000000108020800000000000002080100075
:102B800020001080000010002080008000001080D5
:102B90000080108000800000000010800080008015
:102BA0002000000020801080208010002000000005
:102BB0000080000000000080208000000080108065
:102BC0000000100020000080200010002080008005
:102BD0002000008020001000008010000000000095
:102BE0000080008020800000000000802000108015
:102BF00020801080008010000802000000020208FF
:102C000000000000080002080002000800000000A8
:102C10000802020000020008080002000800000884
:102C20000800000800000200080202080800020074
:102C30000000020808020000000000080800000070
:102C40000002020800020000000202000000020868
:102C50000800020808020200080200080002020040
:102C60000000020008020008080000000802020834
:102C70000002000000000008000202080000000836
:102C80000800020008020000000002000002020822
:102C9000000200080000000000020000080002001E
:102CA00008020208000200080800000800020000F4
:102CB00000000000080002080802000800000200EE
:102CC00000000008080202080800000008020200D4
:102CD00000020200080000080000020808020008C4
:102CE00008020000000002080802020008000000BC
:102CF000080002080002020001208000812000007C
:102D00008120000080000000802080008100800081
:102D10000100800001200000000000000020800071
:102D20000020800081208000810000000000000061
:102D300080008000010080000100000000200000F1
:102D40000000800001208000800000000000800062
:102D500001200000802000008100800001000000B0
:102D60008020000080008000002000008020800083
:102D70008120800081000000800080000100800030
:102D80000020800081208000810000000000000001
:102D900000000000002080008020000080008000F3
:102DA00081008000010000000120800081200000DF
:102DB0008120000080000000812080008100000050
:102DC0000100000000200000010080000120000040
:102DD0008020800081008000012000008020000011
:102DE00000008000012080008000000000008000C2
:102DF0000020000080208000000100000001080287
:102E0000000008020001004200000800000100006C
:102E10000000004000000802000108400000080017
:102E200000010002000108400001004200000842C9
:102E300000010800000000400000000200000840FF
:102E400000000840000000000001004000010842AE
:102E50000001084200010002000008420001004099
:102E60000000000000000042000108020000000213
:102E700000000042000108000000080000010042BC
:102E800000010000000000020000004000000802F5
:102E90000001004200010840000100020000004063
:102EA0000000084200010802000108400001000083
:102EB0000000000200000842000108420001080072
:102EC000000000420001084200000802000000006B
:102ED000000008400000004200010800000100025C
:102EE0000001004000000800000000000000084051
:102EF00000010802000100401000002000004020F6
:102F00000040000010404020000040201000000061
:102F100010404020000040000040002010404000D1
:102F20000000400010000020100040000040002081
:102F300000000020104000000000000010004000D1
:102F400010400020004000000040400010400020E1
:102F50001000000010004020100040200000000081
:102F60001040400000404020104000000040400061
:102F70000040402000000020004000201000000021
:102F80001000402000404000104040200000400061
:102F90001040000010000020000040000040002011
:102FA00000000020104000001000002010404020D1
:102FB0000040400000004020104040000040402001
:102FC0000000000010004020100000000040000041
:102FD0000000402010404000004000001000400071
:102FE00010400020000000000040402000000020B1
:102FF00010004000104000200000200002002004CB
:10300000020800040000000000080000020800049C
:10301000020820000008200402082004000020000C
:103020000000000002000004020000000000000494
:10303000020020040208000000080004020820002A
:103040000200200000080004020000040000200428
:1030500000082004020020000000200400080000F6
:1030600002080000020820040008200002000000FE
:1030700000000004000820000000000400082000F8
:1030800000002000020800040208000402002004DE
:1030900002002004020000000200200000000004E2
:1030A00000080004000020000008200402080000BE
:1030B00002082000000820040208000002000004AA
:1030C0000208200400002004000820000000000086
:1030D0000200000002082004000000000208200096
:1030E00000002004000800000200000400080004A2
:1030F0000008000002002000401000100010000036
:1031000000000400401004100000001040100010E7
:103110004000000000000010400004000000041007
:1031200040100410001004000010041040100400AF
:1031300000100000400000000000041040000010DB
:1031400000100010401000000010040040000400B7
:1031500040000410001004104010000000000000A7
:10316000000000004000041040000010001000109B
:10317000401004000000040040100400000004009F
:103180000010041000100000400000004000041077
:10319000001000004010040000100010400000006B
:1031A0004000001000000410400004100000001057
:1031B0000000040040100010000000004010041047
:1031C0004000040040000010000004100010001037
:1031D0004010001000000000401004100010040017
:1031E00000100400401000004010000040000400E7
:1031F000000000100010041000000000002000007B
:10320000004000000060000000800000000001009D
:1032100000000200000003000000040000000500A0
:103220000000060000000700000008000000090080
:1032300000000A0000000B0000000C0000000C2041
:1032400000200C2000400C2000600C200080034077
:1032500000000000008103400100000000840340E2
:1032600002000000008503400300000000860340C8
:103270000400000000E1000000960000802500002E
:10328000C032000000C0FF1FF4010000C82200008F
:10329000B4340000F4C1FF1F8C010000CC02000018
:1032A000FC34000080C3FF1F90110000D8220000F2
:1032B000FC34000000E003204C160000D82200007F
:1032C000002308E0890606D5028801884A40510695
:1032D00001D5012304E0018802884A405206F1D456
:1032E00018467047F021002211800088704770B5A1
:1032F0000546002472B60120860730603068AA2295
:10330000290B0903A1F8A82A5520A1F85405802308
:10331000A1F8A83AA1F8A82AA1F8540530202880DD
:103320002846FFF7CDFF012803D12846FFF7DAFF33
:10333000042402203060306862B6204670BD2DE95A
:10334000F05F15000E4604464FF0000772B64FF0CE
:1033500080484FF00101C8F80010D8F8000021D0D3
:103360004FF0AA094FF0550A4FF0A00B200B0003B5
:10337000A0F8A89AA0F854A5A0F8A8BA3088208090
:103380002046FFF79DFF012803D02088318888421E
:1033900003D02046FFF7A6FF0427A41C6D1E06F1EC
:1033A0000206E3D10221C8F80010D8F8000062B686
:1033B0003846BDE8F09F002308E0890606D502885C
:1033C00001884A40510601D5012304E001880288A2
:1033D0004A405206F1D418467047F021002211806D
:1033E000008870472DE9F0410F4D002406462C60FF
:1033F00028680E49AA220A800D4B55201880802784
:103400000F800A801880302030803046FFF7D3FFCD
:10341000012803D13046FFF7E0FF04240120286093
:1034200028682046BDE8F08100000E20A80A0C2084
:1034300054050C202DE9F05FDFF86C804FF0000799
:1034400014000D460646C8F80070D8F8000022D0D7
:10345000DFF858904FF0AA0A4FF0550BA9F800A0DA
:10346000134AA2F800B0A021A9F8001028883080E3
:103470003046FFF7A0FF012803D030882988884212
:1034800003D03046FFF7A9FF0427641E05F10205AB
:1034900006F10206E2D10121C8F80010D8F80000B8
:1034A0003846BDE8F09F000000000E20A80A0C205E
:1034B00054050C2011545A62020419700240CA507B
:1034C0001CDA4010EAC020CA5210DA8010DAC010AC
:1034D000110B1880037C410A1D81200A1D84200ADB
:1034E0001D85200A1D8620011B1A01026908290A70
:0C34F0006B0101120114F967A401020332
:020000040000FA
:103FC00058322E484C303535432E3030325F563122
:103FD00030304132310000000000000000000000DD
:043FE00001000000DC
:0400000500000221D4
:00000001FF
